:1000000081C10000B0C10000AEC10000ACC1000061
:10001000AAC10000A8C10000A6C10000A4C1000040
:10002000A2C10000A0C100009EC100009CC1000050
:100030009AC1000098C100001EC6000094C10000D3
:1000400092C1000090C100008EC100008CC1000070
:100050000C94671588C1000086C1000084C10000AF
:1000600082C1000080C100007EC100007CC1000090
:100070007AC1000078C1000076C1000074C10000A0
:1000800072C1000070C100006EC100006CC10000B0
:100090006AC1000068C1000066C1000064C10000C0
:1000A00062C1000060C100005EC100005CC10000D0
:1000B0005AC1000058C1000056C1000054C10000E0
:1000C00052C1000050C100004EC100004CC10000F0
:1000D0004AC1000048C1000046C1000044C1000000
:1000E00042C1000040C100003EC100003CC1000010
:1000F0003AC1000038C1000036C1000034C1000020
:1001000032C1000030C100002EC100002CC100002F
:100110002AC1000028C1000026C1000024C100003F
:1001200022C1000020C100001EC100001CC100004F
:100130001AC1000018C1000016C1000014C100005F
:1001400012C1000010C100000EC100000CC100006F
:100150000AC1000008C1000006C1000004C100007F
:1001600002C1000000C10000FEC00000FCC0000091
:10017000FAC00000F8C00000F6C00000F4C00000A3
:10018000F2C00000F0C00000EEC00000ECC00000B3
:10019000EAC00000E8C00000E6C00000E4C00000C3
:1001A000E2C00000E0C00000DEC00000DCC00000D3
:1001B000DAC00000D8C00000D6C00000D4C00000E3
:1001C000D2C00000D0C00000CEC00000CCC00000F3
:1001D000CAC00000C8C00000C6C00000C4C0000003
:1001E000C2C00000C0C00000BEC00000BCC0000013
:1001F000BAC00000B8C00000B6C00000BCA23C3FBE
:1002000090C48D3F0987D03F1054EF3F000000405D
:1002100069042140EC25414033716040E1EC7E40AF
:10022000034D8E4002BB9C4012BEAA405753B840BB
:10023000D977C540BE28D2407563DE40D225EA405A
:100240001A6EF540871D0041F64505413A300A41D6
:100250006FDC0E41EA4A1341397C17411B711B4187
:10026000802A1F417EA9224153EF25415BFD284191
:1002700011D52B4104782E41D8E730414026334137
:10028000FA343541CD15374182CA3841E8543A41F4
:10029000CAB63B41F3F13C4126083E4123FB3E41B7
:1002A0009FCC3F41477E4041BC114141958841412F
:1002B0005CE441418F2642419F504241EF634241FD
:1002C000D4614241984B42417322424193E74141FC
:1002D000199C41411641414191D7404183604041C1
:1002E000D8DC3F41744D3F412AB33E41C70E3E41E9
:1002F0000A613D41A9AA3C4151EC3B41BB12121697
:10030000C7121E1611241FBECFEFCDBFDFE3DEBF25
:1003100000E00CBF10E2A0E0B0E2E8E7F1E300E0AB
:100320000BBF02C007900D92A830B107D9F72DE29C
:10033000A8E0B0E201C01D92AE31B207E1F712E0D1
:10034000C0E0D3E000E006C022970109FE010BBF28
:100350000E940918CC3FD10780E00807A9F70E9446
:10036000E5130C94AB184CCE3D0A4F0A850AE00AFF
:100370005E0B010CC60CAE0DB80EE40F31119D12D0
:100380002914D3159A177D197C1B931DC41F0B22AA
:100390006824D9265C29F12B962E48310634CF36B5
:1003A000A1397A3C583F3A421E450148E34AC14DC3
:1003B0009A506C533556F458A65B4A5EDF6063630F
:1003C000D4653168786AA86CC06EBE70A17268741A
:1003D00012769E770B79577A837B8D7C757D3B7E79
:1003E000DD7E5B7FB67FEC7FFE7FEC7FB67F5B7F41
:1003F000DD7E3B7E757D8D7C837B577A0B799E7786
:1004000012766874A172BE70C06EA86C786A31688A
:10041000D4656363DF604A5EA65BF45835566C535F
:100420009A50C14DE34A01481E453A42583F7A3C32
:10043000A139CF3606344831962EF12B5C29D926C6
:1004400068240B22C41F931D7C1B7E199A17D31599
:1004500029149D123111E40FB80EAE0DC60C010C1B
:100460005E0BE00A850A4F0AFF7F0000D77F470630
:10047000617F8B0C9C7EC712897DF818297C191F1F
:100480007C7A272583781E2B4076FB30B573B936EE
:10049000E170563CC96DCD416C6A1C47CE663F4C3D
:1004A000F1623351D65EF455815A815AF455D65EC5
:1004B0003351F1623F4CCE661C476C6ACD41C96D29
:1004C000563CE170B936B573FB3040761E2B83780D
:1004D00027257C7A191F297CF818897DC7129C7EF4
:1004E0008B0C617F4706D77F0000FE7FB9F9D77F6D
:1004F00075F3617F39ED9C7E08E7897DE7E0297C13
:10050000D9DA7C7AE2D4837805CF407647C9B573CF
:10051000AAC3E17033BEC96DE4B86C6AC1B3CE66DC
:10052000CDAEF1620CAAD65E7FA5815A2AA1F555FF
:100530000F9D335132993F4C94951C473792CD41D2
:100540001F8F563C4C8CB936C089FB307D871E2BE3
:1005500084852725D883191F7782F8186481C712EC
:100560009F808B0C298047060000000180008001DD
:1005700040004001C000C00120002001A000A001F7
:1005800060006001E000E0011000100190009001A7
:1005900050005001D000D00130003001B000B00157
:1005A00070007001F000F001080008018800880167
:1005B00048004801C800C80128002801A800A80177
:1005C00068006801E800E801180018019800980127
:1005D00058005801D800D80138003801B800B801D7
:1005E00078007801F800F8013F922F921F930F9343
:1005F000DF93CF93DC01EB019927E8E6F3E000E815
:1006000010E0259135914D915D91B503B0012C031A
:100610001001691FBC03790B300C611D791FDA03CF
:10062000790B300C611D791F6993799369937993E4
:100630000150104031F7CF91DF910F911F912F9012
:100640003F90112408953F922F925F924F927F9294
:100650006F929F928F92BF92AF92DF92CF92FF9252
:10066000EF921F930F93DF93CF93FC0181E090E013
:10067000A0E4B0E004E0809F6001909FD00C7C017A
:100680009F938F93EF01A09FC00DD11DB09FD00D00
:10069000FF93EF93BB24AA2499270081118115951C
:1006A00007956881798175956795A801061B170BD9
:1006B000460F571F419351932081318135952795DE
:1006C0006A817B8175956795A901261B370B460FBB
:1006D000571F419351930F01E8E6F4E0EA0DFB1D2B
:1006E0004591559165917591F001950320010C0399
:1006F0001001491E9C03590A300C411C591ED80395
:10070000590A300C411C591EB70340012E03300119
:10071000891EBE03990A700C811C991EFA03990A5E
:10072000700C811C991E260C371C481C591C4992C0
:100730005992B50320012C031001491EBC03590A2C
:10074000300C411C591EDA03590A300C411C591E49
:10075000970340010E033001891E9E03990A700C15
:10076000811C991EF803990A700C811C991E261889
:1007700037084808590849925992AC0CBD1CB0FE84
:100780008CCF04E0A09FC00DD11DE00DF11DB09FE6
:10079000D00DF00D81E0E81AF90A09F07BCFEF9156
:1007A000FF918F919F91880F991FB695A7951096ED
:1007B00009F060CFCF91DF910F911F91EF90FF90E3
:1007C000CF90DF90AF90BF908F909F906F907F9071
:1007D0004F905F902F903F9008953F922F925F929D
:1007E0004F927F926F929F928F92BF92AF921F9380
:1007F0000F93DF93CF935C01EB01E8E6F5E09927D7
:1008000000E410E0A591B591AA0DBB1D2D913D917D
:100810004D915D91B30320012A031001491EBA03D3
:10082000590A300C411C591EBA03590A300C411C9C
:10083000591ED50340014C033001891EDC03990A7F
:10084000700C811C991EDC03990A700C811C991E86
:10085000260C371C481C591C6624772488249924AC
:1008600021E030E04427552770E1220C331C441C62
:10087000551C661C771C881C991C220C331C441CBC
:10088000551C661C771C881C991C2AF4620E731E6A
:10089000841E951E04C0621A730A840A950A220FE8
:1008A000331F441F287F256097FC22507A95E9F674
:1008B00046953795279546953795279529933993EA
:1008C0000150104009F09ECFCF91DF910F911F9101
:1008D000AF90BF908F909F906F907F904F905F9060
:1008E0002F903F9011240895AC019927D703F00170
:1008F0004E03D001E91FDE03F90BB00DE11DF91F16
:10090000FC03F90BB00DE11DF91FCF01112408956F
:10091000CF93DF93CDB7DEB780E492E020E3FC0114
:10092000228380E492E021E0FC01248380E492E0D1
:10093000FC01118280E492E021E0FC01208380E050
:1009400092E020E3FC01228380E092E021E0FC01C0
:10095000248380E092E0FC01118280E092E021E0BB
:10096000FC01208380E492E021E0FC0120A380E4EC
:1009700092E028E0FC0121A380E492E020E432E050
:10098000F90121812860FC01218380E492E020E4C8
:1009900032E0F90120A12068FC0120A380E092E070
:1009A00021E0FC0120A380E092E028E3FC0121A3E8
:1009B00080E092E020E032E0F90121812860FC0132
:1009C000218380E092E020E032E0F90120A120685C
:1009D000FC0120A380E098E021E0FC01208380E07E
:1009E00098E022E0FC01268380E098E027EE33E0E7
:1009F000FC0126A337A3DF91CF910895CF93DF9316
:100A0000CDB7DEB780E091E020E031E0F90120A130
:100A10002F77FC0120A380E091E020E031E0F90194
:100A200020A92F77FC0120AB80E091E0FC0180A1A0
:100A3000881F8827881F8823B9F780E091E0FC0190
:100A400080A9881F8827881F8823B9F780E091E054
:100A500020E031E0F90120A12064FC0120A380E026
:100A600091E020E031E0F90120A92064FC0120ABF5
:100A7000000080E091E0FC0180A1882F90E080746C
:100A8000992721E0009709F420E0222391F7000044
:100A900080E091E0FC0180A9882F90E08074992784
:100AA00021E0009709F420E0222391F780E091E013
:100AB00021E9FC0122A380E091E020E4FC0123A3D2
:100AC00080E091E025E2FC0120A380E091E022E0BB
:100AD00030E0FC0124A335A380E091E020E8FC0194
:100AE00026A380E091E024E6FC0120A780E091E0CD
:100AF00022E0FC0121A780E091E0FC0112A680E049
:100B000091E028E030E2FC0124A780E091E028E0B9
:100B100030E2232F3327FC0125A780E091E0FC0180
:100B200016A680E091E020E031E0F90120A12068E4
:100B3000FC0120A380E091E021E9FC0122AB80E0F0
:100B400091E020E4FC0123AB80E091E025E2FC0190
:100B500020AB80E091E022E030E0FC0124AB35AB3B
:100B600080E091E020E8FC0126AB80E091E024E207
:100B7000FC0120AF80E091E022E0FC0121AF80E0A9
:100B800091E0FC0112AE80E091E028E031E2FC014E
:100B900024AF80E091E028E031E2232F3327FC01ED
:100BA00025AF80E091E0FC0116AE80E091E020E00E
:100BB00031E0F90120A92068FC0120AB1092082245
:100BC0001092092281E080931D2DDF91CF9108952D
:100BD000CF93DF93CDB7DEB780E091E0FC0181A138
:100BE000882F90E0807C9927009761F480E091E065
:100BF000FC018381882F90E082709927009711F083
:100C000081E001C080E0882329F0809108228F5F75
:100C10008093082280E091E0FC0181A9882F90E078
:100C2000807C9927009761F480E091E0FC0183814A
:100C3000882F90E084709927009711F081E001C01F
:100C400080E0882329F0809109228F5F8093092218
:100C500080910822882331F080910922882311F0A5
:100C600081E001C080E0882319F082E080931D2D8F
:100C7000DF91CF9108951F920F9200903F000F9245
:100C80001124CF93DF93CDB7DEB7DF91CF910F90D3
:100C900000923F000F901F901895CF93DF93CDB730
:100CA000DEB78EE090E0AC0160E070E08AE092E2B6
:100CB0000E9464188EE090E0AC0160E070E088E192
:100CC00092E20E94641880E290E0AC0160E070E083
:100CD00083E392E20E94641880E290E0AC0160E05D
:100CE00070E083E592E20E94641880E290E0AC013B
:100CF00060E070E083E792E20E9464181092942210
:100D00001092932241E250E060E070E085E992E2C7
:100D10000E946B18809195228A3A09F468C041E2DA
:100D200050E060E070E085E992E20E94641881E49E
:100D300098E1809396229093972287E99FE0809391
:100D400098229093992285E290E080939A22909342
:100D50009B2282E290E080939C2290939D2288E3E4
:100D600090E080939E2290939F2284E690E080936F
:100D7000A0229093A12282E990E08093A2229093F6
:100D8000A32283ED97E18093A4229093A5228EE283
:100D90009FE08093A6229093A72284E790E080931F
:100DA000A8229093A9228DE890E08093AA229093A4
:100DB000AB2285ED90E08093AC229093AD2288EA3F
:100DC00091E08093AE229093AF2289E892E08093E5
:100DD000B0229093B1228EE290E08093B222909361
:100DE000B32285EA90E08093B4229093B5221092CA
:100DF0002A2210922B2210922C2210922D22DF9167
:100E0000CF9108950F93CF93DF931F92CDB7DEB7A5
:100E100019820BC008EC2FEF4FEF698184E69CE24A
:100E20000E94511189818F5F898389818C3390F36E
:100E300084E69CE20E94D5100F90DF91CF910F9134
:100E400008950F931F93CF93DF93CDB7DEB7A99784
:100E5000CDBFDEBF8A8B9B8B6C8B7D8B8A899B89F8
:100E6000FC018081918180930A2290930B228C89CE
:100E70009D89FC0180819181809318229093192291
:100E80008A899B89FC018281938180930C229093B3
:100E90000D228C899D89FC018281938180931A2285
:100EA00090931B221D821E821F82188619821A822D
:100EB0001B821C8282E0898B39C08989882F90E04F
:100EC0002A893B89880F991F820F931FFC0180811B
:100ED0009181CC01A0E0B0E02D813E814F81588509
:100EE000820F931FA41FB51F8D839E83AF83B88786
:100EF0008989882F90E02C893D89880F991F820F5E
:100F0000931FFC0180819181CC01A0E0B0E0298198
:100F10003A814B815C81820F931FA41FB51F898387
:100F20009A83AB83BC8389898F5F898B898984305D
:100F300020F28D819E81AF81B885B695A795979552
:100F4000879580930E2290930F2289819A81AB819D
:100F5000BC81B695A7959795879580931C22909311
:100F60001D221D821E821F82188619821A821B82F0
:100F70001C8284E0898B39C08989882F90E02A8976
:100F80003B89880F991F820F931FFC0180819181FB
:100F9000CC01A0E0B0E02D813E814F815885820FC9
:100FA000931FA41FB51F8D839E83AF83B887898944
:100FB000882F90E02C893D89880F991F820F931FFD
:100FC000FC0180819181CC01A0E0B0E029813A81CF
:100FD0004B815C81820F931FA41FB51F89839A8365
:100FE000AB83BC8389898F5F898B8989883020F2A4
:100FF0008D819E81AF81B885B695A7959795879588
:10100000B695A79597958795809310229093112276
:1010100089819A81AB81BC81B695A7959795879573
:10102000B695A7959795879580931E2290931F223A
:101030001D821E821F82188619821A821B821C82C0
:1010400088E0898B39C08989882F90E02A893B897B
:10105000880F991F820F931FFC0180819181CC0121
:10106000A0E0B0E02D813E814F815885820F931F13
:10107000A41FB51F8D839E83AF83B8878989882F6E
:1010800090E02C893D89880F991F820F931FFC01E6
:1010900080819181CC01A0E0B0E029813A814B812F
:1010A0005C81820F931FA41FB51F89839A83AB8332
:1010B000BC8389898F5F898B8989803120F28D81FA
:1010C0009E81AF81B885689412F8B695A7959795DB
:1010D00087951694D1F780931222909313228981D9
:1010E0009A81AB81BC81689412F8B695A7959795C3
:1010F00087951694D1F780932022909321221D8208
:101100001E821F82188619821A821B821C8280E12D
:10111000898B39C08989882F90E02A893B89880F7B
:10112000991F820F931FFC0180819181CC01A0E067
:10113000B0E02D813E814F815885820F931FA41FFF
:10114000B51F8D839E83AF83B8878989882F90E0F0
:101150002C893D89880F991F820F931FFC01808184
:101160009181CC01A0E0B0E029813A814B815C8182
:10117000820F931FA41FB51F89839A83AB83BC83FF
:1011800089898F5F898B8989803220F28D819E8148
:10119000AF81B885689413F8B695A795979587950C
:1011A0001694D1F7809314229093152289819A8105
:1011B000AB81BC81689413F8B695A79597958795F0
:1011C0001694D1F780932222909323221D821E82AF
:1011D0001F82188619821A821B821C8280E2898BE8
:1011E00039C08989882F90E02A893B89880F991F07
:1011F000820F931FFC0180819181CC01A0E0B0E0BF
:101200002D813E814F815885820F931FA41FB51FEA
:101210008D839E83AF83B8878989882F90E02C893E
:101220003D89880F991F820F931FFC018081918156
:10123000CC01A0E0B0E029813A814B815C81820F32
:10124000931FA41FB51F89839A83AB83BC838989AD
:101250008F5F898B8989803420F28D819E81AF8157
:10126000B8852CE130E040E050E0BC01CD010E94A7
:10127000D817DA01C9018093162290931722898129
:101280009A81AB81BC812CE130E040E050E0BC01B0
:10129000CD010E94D817DA01C901809324229093CE
:1012A000252210922F22109230228FEF809332222B
:1012B0008FEF809331228A899B89FC018081918103
:1012C000CC01A0E0B0E089879A87AB87BC878C8986
:1012D0009D89FC0180819181CC01A0E0B0E08D83EB
:1012E0009E83AF83B8878FEF9FEFDC018D879E874A
:1012F000AF87B88B8FEF9FEFDC0189839A83AB8335
:10130000BC83198ABBC08989882F90E02A893B89D0
:10131000880F991F820F931FFC01808191819C018E
:1013200040E050E089859A85AB85BC85821793079C
:10133000A407B507B0F48989882F90E02A893B89F2
:10134000880F991F820F931FFC0180819181CC012E
:10135000A0E0B0E089879A87AB87BC8789898093B2
:101360002F228989882F90E02C893D89880F991F29
:10137000820F931FFC01808191819C0140E050E02D
:101380008D819E81AF81B88582179307A407B50729
:10139000B0F48989882F90E02C893D89880F991FA6
:1013A000820F931FFC0180819181CC01A0E0B0E00D
:1013B0008D839E83AF83B887898980933022898902
:1013C000882F90E02A893B89880F991F820F931FED
:1013D000FC01808191819C0140E050E08D859E85DB
:1013E000AF85B889281739074A075B07B0F48989A0
:1013F000882F90E02A893B89880F991F820F931FBD
:10140000FC0180819181CC01A0E0B0E08D879E87B6
:10141000AF87B88B8989809331228989882F90E0A2
:101420002C893D89880F991F820F931FFC018081B1
:1014300091819C0140E050E089819A81AB81BC811F
:10144000281739074A075B07B0F48989882F90E08D
:101450002A893B89880F991F820F931FFC01808185
:101460009181CC01A0E0B0E089839A83AB83BC83F7
:1014700089898093322289898F5F898B8989803419
:1014800008F441CF8A899B898E579F4FFC012081A8
:1014900031818A899B8980589F4FFC01808191818D
:1014A000A901481B590BCA01809326229093272239
:1014B0008C899D898E579F4FFC01208131818C89B9
:1014C0009D8980589F4FFC0180819181A901481B13
:1014D000590BCA0180932822909329221D821E82D3
:1014E0001F821886198A2EC08989882F90E02A8940
:1014F0003B89880F991F820F931FFC012081318146
:101500008989882F90E04C895D89880F991F840F05
:10151000951FFC0180819181820F931F969587957D
:10152000CC01A0E0B0E02D813E814F815885820F33
:10153000931FA41FB51F8D839E83AF83B8878989AE
:101540008F5F898B8989833078F280919322082F6D
:1015500010E08D819E81AF81B88523E030E040E0CE
:1015600050E0BC01CD010E94D817DA01C9019C01ED
:10157000C801880F991F8D5C9D4DFC01208331832C
:101580001D821E821F82188683E0898B2EC0898966
:10159000882F90E02A893B89880F991F820F931F1B
:1015A000FC01208131818989882F90E04C895D89F7
:1015B000880F991F840F951FFC0180819181820FF4
:1015C000931F96958795CC01A0E0B0E02D813E81D8
:1015D0004F815885820F931FA41FB51F8D839E8353
:1015E000AF83B88789898F5F898B8989843178F245
:1015F00080919322082F10E08D819E81AF81B88564
:1016000021E130E040E050E0BC01CD010E94D8175C
:10161000DA01C9019C01C801880F991F8D5A9D4D9F
:10162000FC01208331831D821E821F82188684E183
:10163000898B2EC08989882F90E02A893B89880F61
:10164000991F820F931FFC01208131818989882F86
:1016500090E04C895D89880F991F840F951FFC01CC
:1016600080819181820F931F96958795CC01A0E090
:10167000B0E02D813E814F815885820F931FA41FBA
:10168000B51F8D839E83AF83B88789898F5F898BD0
:1016900089898F3378F280919322082F10E08D8111
:1016A0009E81AF81B8852BE230E040E050E0BC0184
:1016B000CD010E94D817DA01C9019C01C801880F29
:1016C000991F8D589D4DFC01208331838091932279
:1016D0008093942280919322882F90E001968F70BE
:1016E0009078992324F40197806F9F6F01968093DF
:1016F0009322198A8BC08989882F90E0880F991FBF
:10170000865F9D4DFC01208131818989882F90E081
:10171000880F991F8A569D4DFC0180819181821707
:10172000930718F58989882F90E02989222F30E0C6
:10173000220F331F265F3D4DF901408151812989D8
:10174000222F30E0220F331F2A563D4DF901208110
:101750003181BA01621B730B9B01880F991F865F51
:101760009D4DFC01208331830AC08989882F90E038
:10177000880F991F865F9D4DFC0110821182898917
:10178000882F90E0880F991F885E9D4DFC01208175
:1017900031818989882F90E0880F991F8C559D4D44
:1017A000FC01808191818217930718F58989882F20
:1017B00090E02989222F30E0220F331F285E3D4D13
:1017C000F901408151812989222F30E0220F331FF6
:1017D0002C553D4DF90120813181BA01621B730BFB
:1017E0009B01880F991F885E9D4DFC0120833183EA
:1017F0000AC08989882F90E0880F991F885E9D4DC7
:10180000FC011082118289898F5F898B89898730D9
:1018100008F471CF2091B2223091B3228091262218
:10182000909127222817390788F420912622309199
:1018300027228091B2229091B322A901481B590B13
:10184000CA01809326229093272204C01092262258
:10185000109227222091B4223091B5228091282223
:10186000909129222817390788F420912822309155
:1018700029228091B4229091B522B901681B790B7D
:10188000CB01809328229093292204C01092282211
:101890001092292219861A861B861C861D821E829A
:1018A0001F8218861D861E861F86188A198A4EC0BA
:1018B0008989882F90E0880F991F8D589D4DFC01D4
:1018C00080819181CC01A0E0B0E029853A854B85EB
:1018D0005C85820F931FA41FB51F89879A87AB87EA
:1018E000BC878989882F90E0880F991F8D5A9D4D5C
:1018F000FC0180819181CC01A0E0B0E02D853E8586
:101900004F855889820F931FA41FB51F8D879E870F
:10191000AF87B88B8989882F90E0880F991F8D5CDD
:101920009D4DFC0180819181CC01A0E0B0E02D8132
:101930003E814F815885820F931FA41FB51F8D8351
:101940009E83AF83B88789898F5F898B898980312E
:1019500008F4AECF89859A85AB85BC85689413F869
:10196000B695A795979587951694D1F789879A8705
:10197000AB87BC878D859E85AF85B889689413F841
:10198000B695A795979587951694D1F78D879E87DD
:10199000AF87B88B8D819E81AF81B885689413F82D
:1019A000B695A795979587951694D1F78D839E83C5
:1019B000AF83B88710922A2280919422882F90E0DA
:1019C000880F991F8D589D4DFC01008111816985FB
:1019D0007A858B859C850E94BF16DC01CB019C011A
:1019E000AD01BC01CD010E942B16DC01CB01BC0175
:1019F000CD010E949316DC01CB018017910750F4B2
:101A000080912A22816080932A228091B6228F5F62
:101A10008093B62280919422882F90E0880F991F9E
:101A20008D5A9D4DFC01008111816D857E858F85CC
:101A300098890E94BF16DC01CB0126E636E646EE09
:101A40005FE3BC01CD010E947517DC01CB01BC0135
:101A5000CD010E949316DC01CB018017910750F451
:101A600080912A22826080932A228091B7228F5F00
:101A70008093B72280919422882F90E0880F991F3D
:101A80008D5C9D4DFC01008111816D817E818F8176
:101A900098850E94BF16DC01CB0120E030E040ECCD
:101AA0005FE3BC01CD010E947517DC01CB01BC01D5
:101AB000CD010E949316DC01CB018017910750F4F1
:101AC00080912A22846080932A228091B8228F5F9D
:101AD0008093B82280912A22882329F08091B9220C
:101AE0008F5F8093B9228091BA228F5F8093BA2250
:101AF0008091BA22883208F482C080912D22282F4A
:101B000030E0C901880F991F280F391F8091B82232
:101B1000482F50E06EE1649FC001659F900D112435
:101B2000820F931F99230CF40396959587959595AD
:101B3000879580932D221092B82280912C22282FF5
:101B400030E0C901880F991F280F391F8091B722F3
:101B5000482F50E06EE1649FC001659F900D1124F5
:101B6000820F931F99230CF403969595879595956D
:101B7000879580932C221092B72280912B22282FB8
:101B800030E0C901880F991F280F391F8091B622B4
:101B9000482F50E06EE1649FC001659F900D1124B5
:101BA000820F931F99230CF403969595879595952D
:101BB000879580932B221092B62280912E22282F77
:101BC00030E0C901880F991F280F391F8091B92271
:101BD000482F50E06EE1649FC001659F900D112475
:101BE000820F931F99230CF40396959587959595ED
:101BF000879580932E221092B9221092BA22A9962C
:101C0000CDBFDEBFDF91CF911F910F910895CF938C
:101C1000DF931F921F92CDB7DEB789839A838981A4
:101C20009A81885F9B4FFC0110820F900F90DF918B
:101C3000CF910895CF93DF931F921F92CDB7DEB758
:101C400089839A830F900F90DF91CF910895CF935E
:101C5000DF931F921F92CDB7DEB789839A83898164
:101C60009A81885F9B4F21E0FC0120830F900F90A9
:101C7000DF91CF910895CF93DF93CDB7DEB7609713
:101C8000CDBFDEBF8F87988B8F859889885F9B4FEC
:101C9000FC018081882F90E08330910509F4BAC05F
:101CA0008430910544F48130910591F082309105A2
:101CB00009F4A4C024C28530910509F4ABC1853074
:101CC00091050CF411C18630910509F4AFC117C21A
:101CD0008F8598898E579C4FFC01108211828F85C9
:101CE000988980589C4F2FEF3FEFFC012083318370
:101CF00019821A826DC089819A81880F991F885F25
:101D00009F4DFC01808191819C018F8598898E5720
:101D10009C4FFC01808191818217930788F489810F
:101D20009A81880F991F885F9F4DFC018081918166
:101D30009C018F8598898E579C4FFC0120833183AD
:101D400089819A81880F991F885F9F4DFC0180814E
:101D500091819C018F85988980589C4FFC018081DE
:101D600091812817390788F489819A81880F991FF2
:101D7000885F9F4DFC01808191819C018F859889AE
:101D800080589C4FFC012083318389819A81880F80
:101D9000991F885F9F4DFC0180819181829592956A
:101DA000907F9827807F98279C012F5F3F474F8522
:101DB000588989819A819395880F991F840F951F5F
:101DC000FC012083318389819A81019689839A83DA
:101DD00089819A818038910508F48DCF2F853889C3
:101DE0008F8598899E5FB9010E94F4028F8598893A
:101DF000885F9B4F22E0FC01208388C18F859889F2
:101E00000E9423038F859889885F9B4F23E0FC0104
:101E100020837CC18F8598899C013D5F8F8598893F
:101E2000B9010E94ED0319821A8250C02F853889AA
:101E300089819A8180589E4F880F991F820F931F26
:101E4000FC0180819181CC01A0E0B0E0BC01CD011A
:101E500096D7DC01CB0129813A81220F331F220F53
:101E6000331F24503E4F2B833C832B813C81B9018F
:101E7000FB012591359145915491BF012D833E83FE
:101E80004F8358876B837C832D813E814F8158859A
:101E9000BC01CD010E947517DC01CB01BC01CD0155
:101EA00042D7DC01CB019C014F85588989819A81F9
:101EB00080589E4F880F991F840F951FFC01208327
:101EC000318389819A81019689839A8389819A8154
:101ED0008034910508F4AACF8F859889885F9B4F3D
:101EE00024E0FC01208312C18F8598898A5F9B4F73
:101EF000FC01108211828F8598898C5F9B4F2FEF98
:101F00003FEFFC012083318319821A826DC08981E1
:101F10009A81880F991F885F9E4DFC018081918175
:101F20009C018F8598898A5F9B4FFC0180819181FC
:101F30008217930788F489819A81880F991F885F97
:101F40009E4DFC01808191819C018F8598898A5FDB
:101F50009B4FFC012083318389819A81880F991FCF
:101F6000885F9E4DFC01808191819C018F859889BD
:101F70008C5F9B4FFC01808191812817390788F481
:101F800089819A81880F991F885F9E4DFC0180810D
:101F900091819C018F8598898C5F9B4FFC012083E8
:101FA000318389819A81880F991F885F9E4DFC013A
:101FB0008081918182959295907F9827807F982744
:101FC0009C012F5F3F474F85588989819A8193955E
:101FD000880F991F840F951FFC012083318389810D
:101FE0009A81019689839A8389819A8180389105A3
:101FF00008F48DCF2F8538898F8598899E5FB90128
:102000000E94F4028F859889885F9B4F25E0FC0130
:1020100020837CC08F8598890E9423038F859889AF
:10202000885F9B4F26E0FC01208370C08F859889D4
:102030009C012C573C4F8F859889B9010E94ED0374
:1020400019821A824FC02F85388989819A818E53CF
:102050009E4F880F991F820F931FFC0180819181F1
:10206000CC01A0E0B0E0BC01CD0189D6DC01CB0100
:1020700029813A81220F331F220F331F24503E4FF4
:1020800029873A8729853A85B901FB012591359140
:1020900045915491BF012B873C874D875E876987A7
:1020A0007A872B853C854D855E85BC01CD011DD78A
:1020B000DC01CB01BC01CD0136D6DC01CB019C019A
:1020C0004F85588989819A818E539E4F880F991F19
:1020D000840F951FFC012083318389819A810196A9
:1020E00089839A8389819A818034910508F4ABCFE2
:1020F0008F859889885F9B4FFC01108207C08F8570
:102100009889885F9B4FFC01108200008F85988919
:10211000885F9B4FFC0180816096CDBFDEBFDF9161
:10212000CF910895CF93DF931F921F92CDB7DEB763
:1021300089839A8389819A818C579C4F0F900F9045
:10214000DF91CF910895CF93DF931F921F92CDB768
:10215000DEB789839A8389819A819D5F0F900F9062
:10216000DF91CF910895CF93DF931F921F92CDB748
:10217000DEB789839A8324EB30E089819A81A901B3
:1021800060E070E0A1D70F900F90DF91CF9108959C
:10219000CF93DF931F921F92CDB7DEB789839A83C7
:1021A0000F900F90DF91CF910895CF93DF931F92FF
:1021B0001F92CDB7DEB789839A8389819A8144EBD8
:1021C00050E0BC018BEB92E282D28BEB92E250D2D8
:1021D0000F900F90DF91CF9108950F93CF93DF93DE
:1021E00000D000D0CDB7DEB789839A836B832C8370
:1021F0003D834E834E812D813C8189819A81042FBC
:10220000432F6B8107D02696CDBFDEBFDF91CF91E4
:102210000F9108950F93CF93DF9300D000D0CDB7E7
:10222000DEB789839A836B834C832D830E838B81E6
:102230008D3308F02FC08B81282F30E049815A81DF
:10224000C901880F991F820F931F840F951F2C813E
:10225000FC0120838B81282F30E049815A81C901FC
:10226000880F991F820F931F840F951F01962D8150
:10227000FC0120838B81282F30E049815A81C901DC
:10228000880F991F820F931F840F951F02962E812E
:10229000FC0120832696CDBFDEBFDF91CF910F9149
:1022A00008950F93CF93DF93CDB7DEB76B97CDBF74
:1022B000DEBF8A8B9B8B6C8B4D8B2E8B0F8B8C890F
:1022C0008D3308F026C18E89882389F48F898F8702
:1022D0008F89888B8F89898B8F859889A989EA89CD
:1022E000FB899C014A2F6C89CF0177DF12C18D8950
:1022F0008C3F10F08BEF8D8B9D89292F269581E3E4
:10230000289F812D1124869586952AE2829F802D13
:102310001124292F281B822F882F90E02FEF289F30
:10232000A001299F500D11249A01ADE9BFE862D6A2
:102330009A01281B390B36952795820F931F969586
:102340008795929582958F7089279F7089278983B9
:102350009A838D89982F969581E3989F812D1124DA
:10236000869586958D8B8F89482F50E08E89882F92
:1023700090E02FEF30E0281B390B429FC001439FB4
:10238000900D529F900D1124AA2797FDA095BA2F6A
:102390002FEF30E040E050E0BC01CD0109D6DA017A
:1023A000C9018B839C83AD83BE838F89482F50E006
:1023B0008E89682F70E029813A81629FC001639FF6
:1023C000900D729F900D11249C01A1E8B0E812D6E7
:1023D000880F892F881F990B91952FEF30E0281BCC
:1023E000390B429FC001439F900D529F900D1124C5
:1023F0009C01A1E8B0E8FED5880F892F881F990BB2
:102400009195CC01A0E0B0E08F839887A987BA8727
:102410008F89482F50E08E89682F70E02FEF30E0D1
:1024200089819A81281B390B629FC001639F900D9F
:10243000729F900D11249C01A1E8B0E8DBD5880FB4
:10244000892F881F990B91952FEF30E0281B390BAE
:10245000429FC001439F900D529F900D11249C01FB
:10246000A1E8B0E8C7D5880F892F881F990B9195EF
:10247000CC01A0E0B0E08B879C87AD87BE878D89BB
:10248000882F90E082309105F1F08330910534F48B
:10249000009759F08130910579F02AC08330910579
:1024A000C9F084309105E9F023C08F898F878B852F
:1024B000888B8B81898B23C08F818F878F89888BB5
:1024C0008B81898B1CC08B818F878F89888B8B85B3
:1024D000898B15C08B818F878F81888B8F89898BA2
:1024E0000EC08B858F878B81888B8F89898B07C0E6
:1024F0008F898F878B81888B8F81898B00008F8557
:102500009889A989EA89FB899C014A2F6C89CF01A6
:1025100064DE6B96CDBFDEBFDF91CF910F91089542
:10252000CF93DF9300D01F92CDB7DEB789839A8314
:102530006B837C8389819A818130910549F48B81F9
:102540009C818F3F2FEF920719F48BEB92E22BD0F7
:1025500089819A81009749F48B819C818F3F2FEF6D
:10256000920719F48BEB92E276D02496CDBFDEBFB2
:10257000DF91CF910895CF93DF93CDB7DEB76FEFA3
:102580007FEF81E090E0CCDFDF91CF910895CF9392
:10259000DF93CDB7DEB76FEF7FEF80E090E0C0DF75
:1025A000DF91CF910895CF93DF931F921F92CDB704
:1025B000DEB789839A8380E496E020EAFC012183D8
:1025C00080E496E020E4FC01228380E496E020E4AD
:1025D000FC01278B80EB98E0FC01138280EB98E0F4
:1025E00028E0FC01248380EB98E020ECFC012583AB
:1025F00080EB98E023E0FC01268380EB98E020EF5D
:10260000FC01278380E091E020EDFC01228B80E03B
:1026100091E02FE4FC01238B80E091E024E0FC01B9
:10262000208B80E091E020EBFC01248F80E091E0A2
:1026300028E0FC01258F80E091E0FC01168E898165
:102640009A8140EA55E06FE370E03ED50F900F901D
:10265000DF91CF910895CF93DF931F921F92CDB753
:10266000DEB789839A830F900F90DF91CF91089501
:10267000CF93DF931F921F92CDB7DEB789839A83E2
:1026800080E091E029813A81FC01208F80E091E097
:1026900029813A81232F3327FC01218F80E091E0AB
:1026A000FC01128E80E091E020EA35E0FC01248BF1
:1026B000358B80E091E020E031E0F901208920684D
:1026C000FC01208B0F900F90DF91CF910895CF9355
:1026D000DF93CDB7DEB72A97CDBFDEBF8D839E8354
:1026E0006F83788749875A871B821C82198234C07E
:1026F00080E88A832BC08981882F90E02F813885DC
:10270000820F931FFC0190818A818923882351F0D5
:102710002D813E818B819C81820F931F27E0FC01DC
:10272000208309C02D813E818B819C81820F931F64
:102730002FE3FC0120838B819C8101968B839C83FA
:102740008A81882F90E0959587958A838A8188234E
:1027500091F689818F5F89838981282F30E089856F
:102760009A852817390720F22A96CDBFDEBFDF9160
:10277000CF910895CF93DF9300D01F92CDB7DEB7EE
:1027800019821A8280E090E48B839C8310C08B8135
:102790009C8102978B839C838B819C81FC0180812F
:1027A000918129813A818227932789839A838B811A
:1027B0009C81FDE280329F0750F789819A8124969F
:1027C000CDBFDEBFDF91CF9108950F931F93CF93BD
:1027D000DF93CDB7DEB72E97CDBFDEBF80E590E0AB
:1027E0002BECFC01228380E590E020E530E0F9014C
:1027F00020812860FC012083000080E590E0FC013E
:102800008181882F90E08870992721E0009709F056
:1028100020E0222391F780E590E022ECFC01258363
:1028200080E590E020E530E0F90120812061FC01A5
:102830002083000080E590E0FC018181882F90E0FA
:102840008071992721E0009709F020E0222391F779
:1028500084E390E028EDFC01208380E490E024E014
:10286000FC01208380E590E020E530E0F901208143
:102870002E7FFC0120831092182D1092192D10929A
:102880001A2D10921B2D80E498E021E0FC0120839A
:1028900080E498E022E0FC01268380E498E02FEFBA
:1028A0003CE7FC0126A337A380E091E020E8FC018F
:1028B000208380E090E0A8ECB2E489839A83AB8324
:1028C000BC8320E030E04AEF55E469817A818B8156
:1028D0009C810BD3DC01CB018D839E83AF83B887B2
:1028E00020E030E040E85FE36D817E818F81988554
:1028F00016D288232CF481E090E089879A873BC028
:1029000020E03FEF4FE757E46D817E818F8198850E
:10291000E8D218163CF520E030E040E251E469814D
:102920007A818B819C81E1D2DC01CB01BC01CD019C
:10293000FAD1DC01CB0189879A870FC080E293E04E
:102940008B879C878B859C850197F1F78B879C876C
:1029500089859A85019789879A8789859A850097BD
:1029600069F713C06D817E818F819885DCD1DC0190
:10297000CB0189879A8789859A858D879E878D85E2
:102980009E850197F1F78D879E870E944D060E94D4
:102990008804F0DE8ED310921C2D10921D2D80EA3B
:1029A00090E020EA30E0F90122812760FC012283D7
:1029B000789490911D2D81E0913009F080E088237A
:1029C00011F00E94E80580911C2D882F90E0827004
:1029D000992721E0009709F420E0222331F080912B
:1029E0001C2D8D7F80931C2D71C080911C2D882FF4
:1029F00090E08170992721E0009709F420E02223DC
:102A000041F00E94020780911C2D8E7F80931C2D27
:102A10005DC080911D2D882351F480911C2D882F3D
:102A200090E084709927009711F081E001C080E068
:102A3000882341F00E94FE0480911C2D8B7F80939F
:102A40001C2D44C090911D2D81E0923009F080E052
:102A5000882339F08BE598E2FAD883E080931D2D26
:102A600035C090911D2D81E0933009F080E08823DE
:102A700091F08BE598E2FFD8982F81E0992309F037
:102A800080E0882319F180911C2D886080931C2D93
:102A900010921D2D1BC080911C2D882F90E08870F6
:102AA000992721E0009709F420E0222379F08BE5B3
:102AB00098E249DB8C018BE598E234DBB8010E9497
:102AC000210780911C2D877F80931C2D72CF1F9230
:102AD0000F9200903F000F92112400903B000F9244
:102AE0002F938F939F93AF93BF93EF93FF93CF93C6
:102AF000DF93CDB7DEB7809104208150809304200E
:102B000080910420882369F480EA96E021E0FC01AA
:102B1000278380911C2D816080931C2D80E1809300
:102B2000042080910520815080930520809105200C
:102B3000882341F480911C2D826080931C2D8AE0B3
:102B40008093052080910620909107200197809323
:102B500006209093072080910620909107200097EF
:102B600059F480911C2D846080931C2D82E390E0A9
:102B700080930620909307208091182D9091192D15
:102B8000A0911A2DB0911B2D0196A11DB11D80930E
:102B9000182D9093192DA0931A2DB0931B2DDF9112
:102BA000CF91FF91EF91BF91AF919F918F912F9115
:102BB0000F9000923B000F9000923F000F901F90EB
:102BC0001895CF93DF9300D01F92CDB7DEB78983DE
:102BD0009A836B837C8389819A818130910561F42A
:102BE0008B819C818F3F2FEF920731F48BE598E228
:102BF0000ED884E69CE2B7DA89819A81009761F465
:102C00008B819C818F3F2FEF920731F484E69CE209
:102C1000BFDA8BE598E20ED82496CDBFDEBFDF91F8
:102C2000CF910895CF93DF93CDB7DEB76FEF7FEFEE
:102C300081E090E0C6DFDF91CF910895CF93DF93DD
:102C4000CDB7DEB76FEF7FEF80E090E0BADFDF91C6
:102C5000CF9108955058BB27AA270ED008C1F9D0AC
:102C600030F0FED020F031F49F3F11F41EF4EEC09E
:102C70000EF4E095E7FBE4C0E92F0AD180F3BA1720
:102C8000620773078407950718F071F49EF522C157
:102C90000EF4E0950B2EBA2FA02D0B01B901900177
:102CA0000C01CA01A0011124FF27591B99F0593FBB
:102CB00050F4503E68F11A16F040A22F232F342F03
:102CC0004427585FF3CF469537952795A795F04051
:102CD0005395C9F77EF41F16BA0B620B730B840B66
:102CE000BAF09150A1F0FF0FBB1F661F771F881F1E
:102CF000C2F70EC0BA0F621F731F841F48F4879576
:102D000077956795B795F7959E3F08F0B3CF939564
:102D1000880F08F09927EE0F9795879508956CD046
:102D200008F481E00895BCD088F09F5790F0B92F47
:102D30009927B751A0F0D1F0660F771F881F991F10
:102D40001AF0BA95C9F712C0B13081F0C3D0B1E022
:102D50000895C0C0672F782F8827B85F39F0B93F32
:102D6000CCF3869577956795B395D9F73EF4909512
:102D70008095709561957F4F8F4F9F4F0895E89490
:102D800009C097FB3EF490958095709561957F4FB3
:102D90008F4F9F4F9923A9F0F92F96E9BB27939561
:102DA000F695879577956795B795F111F8CFFAF471
:102DB000BB0F11F460FF1BC06F5F7F4F8F4F9F4FA2
:102DC00016C0882311F096E911C0772321F09EE800
:102DD000872F762F05C0662371F096E8862F70E066
:102DE00060E02AF09A95660F771F881FDAF7880F40
:102DF0009695879597F90895990F0008550FAA0B96
:102E0000E0E8FEEF16161706E807F907C0F01216FD
:102E10001306E407F50798F0621B730B840B950B00
:102E200039F40A2661F0232B242B252B21F4089555
:102E30000A2609F4A140A6958FEF811D811D0895F2
:102E400097F99F6780E870E060E008959FEF80EC5D
:102E5000089500240A941616170618060906089500
:102E600000240A9412161306140605060895092E66
:102E70000394000C11F4882352F0BB0F40F4BF2BD5
:102E800011F460FF04C06F5F7F4F8F4F9F4F089515
:102E900057FD9058440F551F59F05F3F71F047950B
:102EA000880F97FB991F61F09F3F79F087950895F0
:102EB000121613061406551FF2CF4695F1DF08C00F
:102EC000161617061806991FF1CF8695710561052C
:102ED00008940895E894BB2766277727CB0197F9D4
:102EE00008958ADF08F48FEF08950BD0C0CFB1DFCB
:102EF00028F0B6DF18F0952309F0A2CFA7CF112450
:102F0000EACFC6DFA0F3959FD1F3950F50E0551F90
:102F1000629FF001729FBB27F00DB11D639FAA272E
:102F2000F00DB11DAA1F649F6627B00DA11D661F7D
:102F3000829F2227B00DA11D621F739FB00DA11D9E
:102F4000621F839FA00D611D221F749F3327A00D58
:102F5000611D231F849F600D211D822F762F6A2FF4
:102F600011249F5750408AF0E1F088234AF0EE0F79
:102F7000FF1FBB1F661F771F881F91505040A9F786
:102F80009E3F510570F05CCFA6CF5F3FECF3983EBB
:102F9000DCF3869577956795B795F795E7959F5FED
:102FA000C1F7FE2B880F911D9695879597F9089587
:102FB000A1E21A2EAA1BBB1BFD010DC0AA1FBB1F3D
:102FC000EE1FFF1FA217B307E407F50720F0A21BAF
:102FD000B30BE40BF50B661F771F881F991F1A941C
:102FE00069F760957095809590959B01AC01BD0146
:102FF000CF010895A29FB001B39FC001A39F700DA0
:10300000811D1124911DB29F700D811D1124911DF0
:1030100008950790F691E02D19948F929F92AF92A8
:10302000BF92CF92DF92EF92FF92CF93DF93EC01AA
:10303000688179818A819B8161157105810591057E
:1030400021F464E279ED8BE597E02DE133EF41E087
:1030500050E055D049015A019B01AC01A7EAB1E407
:103060006AD06B017C01ACEEB4EFA50194016FD086
:10307000C60ED71EE81EF91EF7FE06C081E0C81A6C
:10308000D108E10880E8F80AC882D982EA82FB8286
:10309000C6019F77DF91CF91FF90EF90DF90CF90A7
:1030A000BF90AF909F908F900895B7CF80E090E24F
:1030B000B4CFA0E0B0E08093002090930120A093D3
:1030C0000220B09303200895DC0101C06D934150AC
:1030D0005040E0F70895E0ECF1E0A785A7FDFDCFB3
:1030E000A485A860A4876050704F00C0FB01DC017C
:1030F00002C001900D9241505040D8F70895052E1E
:1031000097FB16F400940FD057FD05D051DF07FC54
:1031100002D046F408C050954095309521953F4F18
:103120004F4F5F4F089590958095709561957F4FB3
:103130008F4F9F4F08955EDFA59F900DB49F900D18
:10314000A49F800D911D11240895B7FFF4CFF3DFE4
:10315000821B930B089513E0C0E0D3E000E005C0AC
:1031600022970109FE010BBF54DFC430D10780E074
:083170000807B1F7F894FFCF46
:0831780001000000100A320002
:00000001FF
