S01300006E524632344C30315F52582E73726563EF
S11300000C9434000C9451000C9451000C94510045
S11300100C9451000C9451000C9451000C94510018
S11300200C9451000C9451000C9451000C94510008
S11300300C9451000C9451000C9451000C945100F8
S11300400C94EE020C9451000C9451000C94510049
S11300500C9451000C9451000C9451000C945100D8
S11300600C9451000C94510011241FBECFEFD8E022
S1130070DEBFCDBF11E0A0E0B1E0E2EEF7E002C0E8
S113008005900D92A831B107D9F722E0A8E1B1E0BB
S113009001C01D92A534B207E1F70E949A020C94A4
S11300A0EF030C940000CF9310927F01C0E020E096
S11300B040E060E08C2F0E94B001CF5FCD33B9F7F0
S11300C0F8940E94AA017894CF9108950C94530057
S11300D0AF92BF92CF92DF92EF92FF920F931F9352
S11300E0CF93DF93EC0189818A3009F059C08A816A
S11300F080937A018B8180937B018C8180937C0136
S11301008D8180937D018E8180937E0180917A011F
S11301108D33C0F590917A0180917F01891730F475
S113012080917A0180937F0110E00AC090917A0156
S113013080917F019817C0F780917F018250F2CFA0
S113014020E040E060E0812F0E94B0011F5F1D337A
S1130150B9F780917F0110E0863030F080917F0103
S1130160181710F41A5FFACF00E00117A9F02091D4
S11301707D0140917C0160917B01802F0E94B00140
S11301800F5FF3CF10E020E040E060E0812F0E9499
S1130190B0011F5F1D33B9F7F8940E94AA01789447
S11301A089818B3009F0CBC0229680E090E02991C0
S11301B030E0FC01EE0FFF1FE65EFE4F318320832B
S11301C001968A30910599F780E090E0C5E06FEFE1
S11301D070E0DC01AA0FBB1FA65EBE4F0D911C91FF
S11301E01197FC01EE0FFF1FE25DFE4F408151812C
S11301F09C01225E3F4F4017510760F50D911C9101
S11302001197C09FA001C19F500D11244F3F51056C
S113021050F071836083F901EE0FFF1FE65EFE4F1D
S11302207183608330C00D911C911197C09FA00110
S1130230C19F500D112451834083ED91FC91CE9FB9
S1130240A001CF9F500D1124F901EE0FFF1FE65EB0
S1130250FE4F17C0408151814330510528F0408141
S11302605181425051090DC040815181452B59F0B3
S1130270408151814330510530F4408151814150D6
S1130280510951834083F901EE0FFF1FE65EFE4FD3
S113029020813181232B31F020813181215031099A
S11302A03183208301968B30910509F092CFA12CE4
S11302B035E0C32ED12C00E010E08BEFB82EBC0C3F
S11302C07801EE0CFF1CF701E25DFE4F7F01E801AF
S11302D0CC0FDD1FCA5ADE4F2B2D30E0C216D306D9
S11302E004F1023090F428813981285D3F4FF701F1
S11302F02F3F310520F0208131814FEF0CC0208148
S1130300318148815981485D06C0F70120813181DE
S11303104881598140956A2D8B2D0E94B001B39478
S1130320DBCF0F5F1F4FF6E0CF0ED11C8EE0A80E7F
S11303309CE8A912C2CFF8940E94AA017894DF9194
S1130340CF911F910F91FF90EF90DF90CF90BF90CE
S1130350AF9008956CE370E080E891E00C9497020C
S11303608F929F92AF92BF92CF92DF92EF92FF92C1
S11303700F931F93CF93DF93922E082F10E0411118
S11303800BC0F801EE0FFF1FE00FF11FE058FE4F06
S11303902183208322838BC0862F6C3F08F08BEF50
S11303A06AE20E94AD03882E2FEF929FC0011124B0
S11303B069E270E00E94B9035B01E92CF12CC42EC0
S11303C0D12CCFEFD0E0CE018C199D09E89EB0016D
S11303D0E99E700DF89E700D1124882777FD809595
S11303E0982F2FEF30E040E050E00E94CD03CA9CEC
S11303F0C001CB9C900DDA9C900D1124BE010E948B
S1130400B903AE01461B570B4E9DC0014F9D900D85
S11304105E9D900D1124BE010E94B903362FAE01DA
S11304204A195B094C9DC0014D9D900D5C9D900D3A
S11304301124BE010E94B903AE01461B570B4E9D09
S1130440C0014F9D900D5E9D900D1124BE010E9430
S1130450B90382E08816C1F0881548F0882089F035
S113046081E0881218C0822F992D932E16C083E044
S1130470881669F084E088120EC0922F892D962E7A
S11304800CC0962F822F09C0862F992D02C0932F5E
S1130490892D922E02C0922F832FF801EE0FFF1F99
S11304A0E00FF11FE058FE4F918290838283DF9129
S11304B0CF911F910F91FF90EF90DF90CF90BF905D
S11304C0AF909F908F90089527B1242B27B938B10E
S11304D0242F2095232338B1342B4FB7F894FC01F3
S11304E0680F791FE617F70789F0819198E038B90A
S11304F0000000C087FF28B9880F000000C000C0BA
S113050000C028B900C09A9591F7ECCF4FBF089569
S11305109B01220F331F260F371FB9010E9464026B
S113052087EC90E00197F1F700C00000089542E0E5
S11305300C948802CF93DF93CDB7DEB768970FB6DC
S1130540F894DEBF0FBECDBF88E1E0E0F1E0DE014C
S1130550119601900D928A95E1F78FEF87B980E1AA
S11305600E943E030E9450030E94660080E288B904
S11305702FEF81EE94E0215080409040E1F700C0DD
S1130580000018B878940E947D03CE0101960E9461
S113059032032FEF81EE94E0215080409040E1F748
S11305A000C0000080E2F82E18B80091180110E095
S11305B00E945C0321E030E0882311F020E030E069
S11305C0202B312B232B89F784E392E00E9495039F
S11305D0F8B884E392E00E946800E6CF1F920F927D
S11305E00FB60F9211248F93809119018F5F8C3372
S11305F018F48093190105C01092190181E08093C9
S113060018018F910F900FBE0F901F90189584B111
S1130610837C84B984B18C6284B981E58CBD81E02A
S11306208DBD0895262FFB013E2F321B341750F445
S1130630DC013D91CD013EBD0DB407FEFDCF3EB5BD
S11306403193F2CF08958EBD0DB407FEFDCF8EB564
S113065008959091C00095FFFCCF8093C60080E080
S113066090E00895CF93DF93EC018991882319F0EA
S11306700E942903FACFDF91CF91089528E030E05A
S1130680082E01C0220F0A94EAF72093C500809334
S1130690C40088E18093C10086E08093C20008957D
S11306A084B1836084B92898299A8AE08093690088
S11306B081E08DBB0C94070380914402811107C033
S11306C029988FEF0E942303299A8074089580E06B
S11306D00895CF93DF931F92CDB7DEB729988F711A
S11306E0806269830E9423036981862F0E94230309
S11306F0299A0F90DF91CF91089562E085E00E94DE
S113070069036EE086E00E94690360E181E10E9472
S1130710690360E081E00E946903109244026FE47F
S113072080E00E946903289A08951F93CF93DF9372
S1130730EC01299881E60E942303182F40E1BE01B1
S1130740CE010E941203299A60E487E00E946903A3
S1130750812FDF91CF911F910895991B79E004C0F7
S1130760991F961708F0961B881F7A95C9F78095EC
S11307700895AA1BBB1B51E107C0AA1FBB1FA617E4
S1130780B70710F0A61BB70B881F991F5A95A9F736
S113079080959095BC01CD010895A1E21A2EAA1B63
S11307A0BB1BFD010DC0AA1FBB1FEE1FFF1FA2171D
S11307B0B307E407F50720F0A21BB30BE40BF50B1A
S11307C0661F771F881F991F1A9469F760957095A3
S11307D0809590959B01AC01BD01CF010895F894DB
S10507E0FFCF45
S11307E26E524632344C3031205258206973207292
S10B07F265616479210D0A0020
S9030000FC
