S01100004D7573696B44696E672E7372656388
S113000089C10000B8C10000B6C10000B4C100003D
S1130010B2C10000B0C10000AEC10000ACC100001C
S1130020AAC10000A8C10000A6C10000A4C100002C
S1130030A2C10000A0C100004AC500009CC100008C
S11300409AC1000098C1000096C1000094C100004C
S11300500C94101390C100008EC100008CC10000EC
S11300608AC1000088C1000086C1000084C100006C
S113007082C1000080C100007EC100007CC100007C
S11300807AC1000078C1000076C1000074C100008C
S113009072C1000070C100006EC100006CC100009C
S11300A06AC1000068C1000066C1000064C10000AC
S11300B062C1000060C100005EC100005CC10000BC
S11300C05AC1000058C1000056C1000054C10000CC
S11300D052C1000050C100004EC100004CC10000DC
S11300E04AC1000048C1000046C1000044C10000EC
S11300F042C1000040C100003EC100003CC10000FC
S11301003AC1000038C100000C946C1334C10000E3
S113011032C1000030C100002EC100002CC100001B
S11301202AC1000028C1000026C1000024C100002B
S113013022C1000020C100001EC100001CC100003B
S11301401AC1000018C1000016C1000014C100004B
S113015012C1000010C100000EC100000CC100005B
S11301600AC1000008C1000006C1000004C100006B
S113017002C1000000C10000FEC00000FCC000007D
S1130180FAC00000F8C00000F6C00000F4C000008F
S1130190F2C00000F0C00000EEC00000ECC000009F
S11301A0EAC00000E8C00000E6C00000E4C00000AF
S11301B0E2C00000E0C00000DEC00000DCC00000BF
S11301C0DAC00000D8C00000D6C00000D4C00000CF
S11301D0D2C00000D0C00000CEC00000CCC00000DF
S11301E0CAC00000C8C00000C6C00000C4C00000EF
S11301F0C2C00000C0C00000BEC000003207320709
S11302003207320732073A073A073A073A073A07FA
S1130210BCA23C3F90C48D3F0987D03F1054EF3FB0
S11302200000004069042140EC25414033716040E6
S1130230E1EC7E40034D8E4002BB9C4012BEAA40BE
S11302405753B840D977C540BE28D2407563DE40C5
S1130250D225EA401A6EF540871D0041F645054156
S11302603A300A416FDC0E41EA4A1341397C1741A6
S11302701B711B41802A1F417EA9224153EF254156
S11302805BFD284111D52B4104782E41D8E730413C
S113029040263341FA343541CD15374182CA3841BD
S11302A0E8543A41CAB63B41F3F13C4126083E4189
S11302B023FB3E419FCC3F41477E4041BC1141411D
S11302C0958841415CE441418F2642419F5042411F
S11302D0EF634241D4614241984B4241732242410F
S11302E093E74141199C41411641414191D7404115
S11302F083604041D8DC3F41744D3F412AB33E41C5
S1130300C70E3E410A613D41A9AA3C4151EC3B4123
S1130310BF13C21311241FBECFEFCDBFDFE3DEBF77
S113032000E00CBF10E2A0E0B0E2EAEBFEE200E085
S11303300BBF02C007900D92AA30B107D9F726E28D
S1130340AAE0B0E201C01D92AE3EB207E1F713E0AD
S1130350C2E1D3E000E006C022970109FE010BBF11
S11303600E949D16C031D10780E00807A9F70E94BA
S113037030120C944C1744CE3D0A4F0A850AE00A09
S11303805E0B010CC60CAE0DB80EE40F31119D12BC
S11303902914D3159A177D197C1B931DC41F0B2296
S11303A06824D9265C29F12B962E48310634CF36A1
S11303B0A1397A3C583F3A421E450148E34AC14DAF
S11303C09A506C533556F458A65B4A5EDF606363FB
S11303D0D4653168786AA86CC06EBE70A172687406
S11303E012769E770B79577A837B8D7C757D3B7E65
S11303F0DD7E5B7FB67FEC7FFE7FEC7FB67F5B7F2D
S1130400DD7E3B7E757D8D7C837B577A0B799E7771
S113041012766874A172BE70C06EA86C786A316876
S1130420D4656363DF604A5EA65BF45835566C534B
S11304309A50C14DE34A01481E453A42583F7A3C1E
S1130440A139CF3606344831962EF12B5C29D926B2
S113045068240B22C41F931D7C1B7E199A17D31585
S113046029149D123111E40FB80EAE0DC60C010C07
S11304705E0BE00A850A4F0AFF7F0000D77F47061C
S1130480617F8B0C9C7EC712897DF818297C191F0B
S11304907C7A272583781E2B4076FB30B573B936DA
S11304A0E170563CC96DCD416C6A1C47CE663F4C29
S11304B0F1623351D65EF455815A815AF455D65EB1
S11304C03351F1623F4CCE661C476C6ACD41C96D15
S11304D0563CE170B936B573FB3040761E2B8378F9
S11304E027257C7A191F297CF818897DC7129C7EE0
S11304F08B0C617F4706D77F0000FE7FB9F9D77F59
S113050075F3617F39ED9C7E08E7897DE7E0297CFE
S1130510D9DA7C7AE2D4837805CF407647C9B573BB
S1130520AAC3E17033BEC96DE4B86C6AC1B3CE66C8
S1130530CDAEF1620CAAD65E7FA5815A2AA1F555EB
S11305400F9D335132993F4C94951C473792CD41BE
S11305501F8F563C4C8CB936C089FB307D871E2BCF
S113056084852725D883191F7782F8186481C712D8
S11305709F808B0C298047060000000180008001C9
S113058040004001C000C00120002001A000A001E3
S113059060006001E000E001100010019000900193
S11305A050005001D000D00130003001B000B00143
S11305B070007001F000F001080008018800880153
S11305C048004801C800C80128002801A800A80163
S11305D068006801E800E801180018019800980113
S11305E058005801D800D80138003801B800B801C3
S11305F078007801F800F8013F922F921F930F932F
S1130600DF93CF93DC01EB019927E8E7F3E000E8FF
S113061010E0259135914D915D91B503B0012C0306
S11306201001691FBC03790B300C611D791FDA03BB
S1130630790B300C611D791F6993799369937993D0
S11306400150104031F7CF91DF910F911F912F90FE
S11306503F90112408953F922F925F924F927F9280
S11306606F929F928F92BF92AF92DF92CF92FF923E
S1130670EF921F930F93DF93CF93FC0181E090E0FF
S1130680A0E4B0E004E0809F6001909FD00C7C0166
S11306909F938F93EF01A09FC00DD11DB09FD00DEC
S11306A0FF93EF93BB24AA24992700811181159508
S11306B007956881798175956795A801061B170BC5
S11306C0460F571F419351932081318135952795CA
S11306D06A817B8175956795A901261B370B460FA7
S11306E0571F419351930F01E8E7F4E0EA0DFB1D16
S11306F04591559165917591F001950320010C0385
S11307001001491E9C03590A300C411C591ED80380
S1130710590A300C411C591EB70340012E03300105
S1130720891EBE03990A700C811C991EFA03990A4A
S1130730700C811C991E260C371C481C591C4992AC
S11307405992B50320012C031001491EBC03590A18
S1130750300C411C591EDA03590A300C411C591E35
S1130760970340010E033001891E9E03990A700C01
S1130770811C991EF803990A700C811C991E261875
S113078037084808590849925992AC0CBD1CB0FE70
S11307908CCF04E0A09FC00DD11DE00DF11DB09FD2
S11307A0D00DF00D81E0E81AF90A09F07BCFEF9142
S11307B0FF918F919F91880F991FB695A7951096D9
S11307C009F060CFCF91DF910F911F91EF90FF90CF
S11307D0CF90DF90AF90BF908F909F906F907F905D
S11307E04F905F902F903F9008953F922F925F9289
S11307F04F927F926F929F928F92BF92AF921F936C
S11308000F93DF93CF935C01EB01E8E7F5E09927C1
S113081000E410E0A591B591AA0DBB1D2D913D9169
S11308204D915D91B30320012A031001491EBA03BF
S1130830590A300C411C591EBA03590A300C411C88
S1130840591ED50340014C033001891EDC03990A6B
S1130850700C811C991EDC03990A700C811C991E72
S1130860260C371C481C591C662477248824992498
S113087021E030E04427552770E1220C331C441C4E
S1130880551C661C771C881C991C220C331C441CA8
S1130890551C661C771C881C991C2AF4620E731E56
S11308A0841E951E04C0621A730A840A950A220FD4
S11308B0331F441F287F256097FC22507A95E9F660
S11308C046953795279546953795279529933993D6
S11308D00150104009F09ECFCF91DF910F911F91ED
S11308E0AF90BF908F909F906F907F904F905F904C
S11308F02F903F9011240895AC019927D703F0015C
S11309004E03D001E91FDE03F90BB00DE11DF91F01
S1130910FC03F90BB00DE11DF91FCF01112408955B
S1130920A0E4B2E090E312969C93129781E01496AF
S11309308C93149711961C9211978C93E0E0F2E03B
S1130940928384831182808390968C93909798E00D
S113095091969C93919711969C91119798601196FA
S11309609C93119790969C919097906890969C93E5
S113097080A398E391A391819860918390A190685A
S113098090A3E0E0F8E0808382E0868387EE93E042
S113099086A397A30895809120018F7780932001E7
S11309A0809130018F77809330018091200187FD01
S11309B0FCCF8091300187FDFCCF809120018064C1
S11309C08093200180913001806480933001809174
S11309D0200186FDFCCF8091300186FDFCCFE1E94A
S11309E0E093220170E47093230165E26093200197
S11309F082E090E0809324019093250150E8509385
S1130A00260124E62093280142E040932901109214
S1130A102A012CE031E220932C0130932D01109215
S1130A202E0120912001206820932001E0933201BF
S1130A3070933301609330018093340190933501B6
S1130A405093360184E28093380140933901109227
S1130A503A018CE090E280933C0190933D01109226
S1130A603E018091300180688093300110920B2008
S1130A7010920A2081E08093DE2208958091210162
S1130A80807C21F48091030181FD1BC080913101A0
S1130A90807C21F48091030182FD0DC080910B20A4
S1130AA0882339F080910A20882321F082E0809302
S1130AB0DE220895089580910A208F5F80930A2092
S1130AC0EDCF80910B208F5F80930B20DFCF1F929F
S1130AD00F920FB60F9211240F900FBE0F901F901C
S1130AE0189584E1EAECF2E2DF01982F1D929A95C1
S1130AF0E9F7E6EBF2E2DF011D928A95E9F780E27D
S1130B00E9E8F2E2DF01982F1D929A95E9F7E9E608
S1130B10F2E2DF01982F1D929A95E9F7E9E4F2E2F7
S1130B20DF011D928A95E9F710924722109248221C
S1130B304DE250E060E070E08AE192E20E940C171E
S1130B4080911A228A3A09F467C08DE2EAE1F2E25E
S1130B50DF011D928A95E9F781E498E180931B22D5
S1130B6090931C2287E99FE080931D2290931E227C
S1130B7085E290E080931F229093202282E290E00D
S1130B80809321229093222288E390E08093232271
S1130B909093242284E690E0809325229093262249
S1130BA082E990E0809327229093282283ED97E1B5
S1130BB080932F22909330228EE29FE08093312203
S1130BC09093322284E790E08093332290933422EE
S1130BD08DE890E0809335229093362285ED90E065
S1130BE0809337229093382288EA91E080933922C7
S1130BF090933A2289E892E080933B2290933C229E
S1130C008EE290E0809343229093442285EA90E020
S1130C1080934522909346221092B1221092B022E2
S1130C201092AF221092AE220895CF92DF92FF92DB
S1130C300F931F93CF93DF93CDB7DEB76097CDBFEC
S1130C40DEBF0E94FE166AE070E00E945316F82E82
S1130C50809319222091D2223091D3228091D422E0
S1130C609091D522280F391F8091D6229091D722B6
S1130C70280F391F4091CA225091CB228091CC2257
S1130C809091CD22480F591F6091CE227091CF22AE
S1130C90460F571F6091D0227091D122460F571FE3
S1130CA0569547955695479540931522509316228D
S1130CB0ABEABAEA0E948E1696958795809317221E
S1130CC090931822C090C822D090C9220091C622C5
S1130CD01091C722A8014C0D5D1D56954795209192
S1130CE01322309114222417350738F481E08093BD
S1130CF0042040931322509314228091B12288231C
S1130D0099F0809112228F5F8093122280910420A7
S1130D10882351F08F2D90E08A30910508F49DC00E
S1130D2010920420109212228EE089838BE08A8331
S1130D302091B6223091B722A1ECBFE00E948E161A
S1130D40929582958F7089279F7089278B83209134
S1130D50B8223091B9220E948E16929582958F7096
S1130D6089279F7089278C832091BA223091BB22D6
S1130D700E948E16929582958F7089279F7089277D
S1130D808D832091BC223091BD220E948E169295B3
S1130D9082958F7089279F7089278E832091BE2228
S1130DA03091BF220E948E16929582958F7089276A
S1130DB09F7089278F832091C0223091C1220E9485
S1130DC08E16929582958F7089279F7089278887C0
S1130DD02091C2223091C3220E948E169295829550
S1130DE08F7089279F70892789872091C422309129
S1130DF0C5220E948E16929582958F7089279F70C6
S1130E0089278A8798010E948E16929582958F7001
S1130E1089279F7089278B8796010E948E16929549
S1130E2082958F7089279F7089278C878CE88D879E
S1130E3060E1CE0101960E949114809111228F5F8E
S1130E40809311226096CDBFDEBFDF91CF911F91B9
S1130E500F91FF90DF90CF90089582509F4FFC0137
S1130E600C9488168CE8809305201092042010922C
S1130E7012225ACF8AEF80930520109204201092F8
S1130E80122252CF2F923F924F925F926F927F9293
S1130E908F929F92AF92BF92CF92DF92EF92FF9286
S1130EA00F931F93CF93DF93CDB7DEB7C855D10906
S1130EB0CDBFDEBF89839A836B837C83DC014D9035
S1130EC05C9011974092CA225092CB22FB01008180
S1130ED011810093B6221093B72212962D913C9162
S1130EE0139729873A872093CC223093CD224281CD
S1130EF053814B875C874093B8225093B922149650
S1130F008D919C9115978D879E878093CE22909387
S1130F10CF22A481B581AF87B88BA093BA22B093B6
S1130F20BB22E981FA810680F781E02DE98BFA8BF7
S1130F30E093D022F093D122DB0116960D90BC9160
S1130F40A02DAB8BBC8BA093BC22B093BD22FB0124
S1130F500284F385E02DEB8FFC8FDB0118960D9056
S1130F60BC91A02DAF8BB88FCD01A0E0B0E08E0F67
S1130F709F1FA11DB11DE981FA810284F385E02D33
S1130F80E98FFA8FE981FA810084F185E02DED8BF8
S1130F90FE8BAF0160E070E0298D3A8D420F531F44
S1130FA0611D711D76956795579547954093D2229B
S1130FB05093D322B695A795979587958093BE2293
S1130FC09093BF22AB81BC811E960D90BC91A02D45
S1130FD0ABA3BCA3EB81FC810484F585E02DEF8FEA
S1130FE0F8A3CF01A0E0B0E02BA13CA1820F931F96
S1130FF0A11DB11DE981FA810684F785E02DE9A3DD
S1131000FAA3E981FA810484F585E02DED8FFE8F42
S1131010AF0160E070E029A13AA1420F531F611DA6
S1131020711D76956795579547954093D4225093B3
S1131030D522B695A795979587958093C0229093CE
S1131040C122A981BA8150960D90BC91A02DADA367
S1131050BEA3E981FA810288F389E02DE9A7FAA702
S1131060AF0160E070E04A0F5B1F611D711DAB8131
S1131070BC8150960D90BC91A02DAFA3B8A7EB8175
S1131080FC810288F389E02DEBA7FCA7CF01A0E047
S1131090B0E02FA138A5820F931FA11DB11DE981D6
S11310A0FA810488F589E02DEDA7FEA74E0F5F1F96
S11310B0611D711DEB81FC810488F589E02DEFA78A
S11310C0F8AB8E0F9F1FA11DB11DEB81FC8106881B
S11310D0F789E02DEBABFCAB8E0F9F1FA11DB11D5B
S11310E0E981FA810688F789E02DE9ABFAAB4E0F66
S11310F05F1F611D711D7695679557954795769588
S11311006795579547954093D6225093D722B69525
S1131110A79597958795B695A79597958795809365
S1131120C2229093C322A981BA8158960D90BC9192
S1131130A02DADABBEABE981FA81028CF38DE02D1D
S1131140E9AFFAAFAF0160E070E04A0F5B1F611DC9
S1131150711DAB81BC8158960D90BC91A02DAFAB95
S1131160B8AFEB81FC81028CF38DE02DEBAFFCAFCB
S1131170CF01A0E0B0E02FA938AD820F931FA11DCD
S1131180B11DE981FA81048CF58DE02DEDAFFEAF40
S11311904E0F5F1F611D711DEB81FC81048CF58D69
S11311A0E02D2196EEAFFFAF21978E0F9F1FA11D5B
S11311B0B11DEB81FC81068CF78DE02D2596EEAFF9
S11311C0FFAF25978E0F9F1FA11DB11DE981FA81E5
S11311D0068CF78DE02D2396EEAFFFAF23974E0FCD
S11311E05F1F611D711D7695679557954795769597
S11311F06795579547954093D8225093D922B69531
S1131200A79597958795B695A79597958795809374
S1131210C4229093C522A981BA8190960D90BC9165
S1131220A02D2796AEAFBFAF2797E981FA8102A020
S1131230F3A1E02D2B96EEAFFFAF2B97AF0160E04B
S113124070E04A0F5B1F611D711DAB81BC819096DC
S11312500D90BC91A02D2996AEAFBFAF2997EB811D
S1131260FC8102A0F3A1E02D2D96EEAFFFAF2D97E8
S1131270CF01A0E0B0E029962EAD3FAD2997820FB3
S1131280931FA11DB11DE981FA8104A0F5A1E02DF0
S11312902F96EEAFFFAF2F974E0F5F1F611D711D8D
S11312A0EB81FC8104A0F5A1E02D6196EEAFFFAFC8
S11312B061978E0F9F1FA11DB11DE981FA8106A0C0
S11312C0F7A1E02D6396EEAFFFAF63974E0F5F1F5C
S11312D0611D711DEB81FC8106A0F7A1E02D6596CF
S11312E0EEAFFFAF65978E0F9F1FA11DB11DE98162
S11312F0FA8120A531A5420F531F611D711DEB8199
S1131300FC8120A531A5820F931FA11DB11DE98188
S1131310FA8122A533A5420F531F611D711DEB8174
S1131320FC8122A533A5820F931FA11DB11DE98164
S1131330FA8124A535A5420F531F611D711DEB8150
S1131340FC8124A535A5820F931FA11DB11DE98140
S1131350FA8126A537A5420F531F611D711DEB812C
S1131360FC8126A537A5820F931FA11DB11DE9811C
S1131370FA8120A931A9420F531F611D711DEB8110
S1131380FC8120A931A9820F931FA11DB11DE98100
S1131390FA8122A933A9420F531F611D711DEB81EC
S11313A0FC8122A933A9820F931FA11DB11DE981DC
S11313B0FA8124A935A9420F531F611D711DEB81C8
S11313C0FC8124A935A9820F931FA11DB11DE981B8
S11313D0FA8126A937A9420F531F611D711DEB81A4
S11313E0FC8126A937A9820F931FA11DB11DE98194
S11313F0FA8120AD31AD420F531F611D711DEB8188
S1131400FC8120AD31AD820F931FA11DB11DE98177
S1131410FA8122AD33AD420F531F611D711DEB8163
S1131420FC8122AD33AD820F931FA11DB11DE98153
S1131430FA8124AD35AD420F531F611D711DEB813F
S1131440FC8124AD35AD820F931FA11DB11D26ADC6
S113145037AD820F931FA11DB11DE981FA8126AD1D
S113146037AD420F531F611D711D24E076956795BA
S1131470579547952A95D1F74093DA225093DB226A
S113148034E0B695A795979587953A95D1F78093CB
S1131490C6229093C7229F01205C3F4FAB80BC8043
S11314A0F0E4AF0EB11C40E2488760E070E0CB018D
S11314B0C12CD12C7601D901F5012D913D91620FFA
S11314C0731F811D911D21913191C20ED31EE11C08
S11314D0F11C415091F748872CE1822E912CA12CCC
S11314E0B12CA50194010E9466162093DC2230934E
S11314F0DD22C701B601A50194010E94661620935E
S1131500C8223093C9221092AC221092AB228FEFE2
S11315108093A922612C712C4801A12CB12C1E822C
S11315201D825FEF5F8389819A812B803C80FFEF6E
S1131530E0E0CC24CA94DC2C76010FEF1FEF980175
S11315406996EFAF699767968EAF9FAF6797689676
S1131550FFAF68976796AEADBFAD67978D919D91CC
S11315606796AEAFBFAF6797A0E0B0E048165906E4
S11315706A067B0630F46996EFAD6997EE832C0119
S11315803D01F101419151911F0160E070E0841629
S11315909506A606B70630F46996FFAD6997FD83F4
S11315A04A015B018C159D05AE05BF0540F46996A3
S11315B0EFAD69976896EFAF68976C017D014017AE
S11315C051076207730730F46996FFAD6997FF838B
S11315D08C019D0169964FAD69974F5F69964FAF36
S11315E06997403409F0B6CF6896FFAD68975E817D
S11315F05093AC228D818093AB22F093AA229F81D9
S11316009093A922A981BA81AE57BF4F89819A814B
S113161080589F4FED90FC90DC018D919C91E81ACD
S1131620F90AE092B422F092B522AB81BC81AE57A4
S1131630BF4F8B819C8180589F4FCD90DC90FC01E3
S113164080819181C81AD90AC092B222D092B32261
S1131650AB81BC814D915C91E981FA81208131811A
S1131660420F531F569547956B857C8529853A858E
S1131670620F731F7695679580E090E0640F751F85
S1131680811D911D50904822852C912C2F853889DD
S11316904D855E85240F351F36952795620F731F80
S11316A0811D911D23E030E040E050E00E94661669
S11316B039015401AA0CBB1CF501E757FD4D2083E9
S11316C031832B893C8989899A89280F391F36955A
S11316D027956F89788DAD89BE896A0F7B1F7695B2
S11316E0679580E090E0620F731F811D911D2B8D23
S11316F03C8DE98DFA8D2E0F3F1F36952795620F8D
S1131700731F811D911D2F8D38A14D8D5E8D240F6A
S1131710351F36952795620F731F811D911D2BA1CF
S11317203CA1A9A1BAA12A0F3B1F36952795620FA8
S1131730731F811D911D2FA138A5EDA1FEA12E0FB0
S11317403F1F36952795620F731F811D911D2BA591
S11317503CA549A55AA5240F351F36952795620F38
S1131760731F811D911D2FA538A9ADA5BEA52A0FF4
S11317703B1F36952795620F731F811D911D2BA961
S11317803CA9E9A9FAA92E0F3F1F36952795620FA8
S1131790731F811D911D2FA938AD4DA95EA9240F7A
S11317A0351F36952795620F731F811D911D2BAD33
S11317B03CADA9ADBAAD2A0F3B1F36952795620FF4
S11317C0731F811D911D21962EAD3FAD2197EDAD67
S11317D0FEAD2E0F3F1F36952795620F731F811D97
S11317E0911D25962EAD3FAD259723964EAD5FAD49
S11317F02397240F351F36952795620F731F811D7C
S1131800911D29962EAD3FAD29972796AEADBFAD5C
S113181027972A0F3B1F36952795620F731F811D4B
S1131820911D2D962EAD3FAD2D972B96EEADFFADB0
S11318302B972E0F3F1F36952795620F731F811D1F
S1131840911D61962EAD3FAD61972F964EAD5FAD64
S11318502F97240F351F36952795620F731F811D0F
S1131860911D65962EAD3FAD65976396AEADBFAD48
S113187063972A0F3B1F36952795620F731F811DAF
S1131880911D21E130E040E050E00E94661689019C
S1131890F501E759FD4D20833183A981BA819896DA
S11318A02B813C81285D3F4FE4E160E070E0CB0197
S11318B0AB01BC014E2EF9012D913D918191919185
S11318C0820F931F96958795480F591F611D711DAF
S11318D043942FE34212F0CFCB01BA012BE230E064
S11318E040E050E00E9466161901F501E75BFD4DEA
S11318F020833183509247223FEF831A930A4FE0AB
S113190084229924809248222091CA223091CB22A9
S113191080911B2290911C228217930708F438C4EB
S11319201092CA221092CB222091B6223091B72273
S113193080912F22909130228217930708F421C4BA
S11319401092B6221092B7222091CC223091CD224F
S113195080911D2290911E228217930708F40AC4D5
S11319601092CC221092CD222091B8223091B9222B
S113197080913122909132228217930708F4F3C3A5
S11319801092B8221092B9222091CE223091CF2207
S113199080911F22909120228217930708F4DCC3C0
S11319A01092CE221092CF222091BA223091BB22E3
S11319B080913322909134228217930708F4C5C38F
S11319C01092BA221092BB222091D0223091D122BF
S11319D080912122909122228217930708F4AEC3AA
S11319E01092D0221092D1222091BC223091BD229B
S11319F080913522909136228217930708F497C379
S1131A001092BC221092BD222091D2223091D32276
S1131A1080912322909124228217930708F480C393
S1131A201092D2221092D3222091BE223091BF2252
S1131A3080913722909138228217930708F469C362
S1131A401092BE221092BF222091D4223091D5222E
S1131A5080912522909126228217930708F452C37D
S1131A601092D4221092D5222091C0223091C1220A
S1131A708091392290913A228217930708F43BC34C
S1131A801092C0221092C1222091D6223091D722E6
S1131A9080912722909128228217930708F424C367
S1131AA01092D6221092D7222091C2223091C322C2
S1131AB080913B2290913C228217930708F40DC336
S1131AC01092C2221092C3222091D8223091D9229E
S1131AD08091292290912A228217930708F4F6C252
S1131AE01092D8221092D9222091C4223091C5227A
S1131AF080913D2290913E228217930708F4DFC221
S1131B001092C4221092C5222091DA223091DB2255
S1131B1080912B2290912C228217930708F4C8C23B
S1131B201092DA221092DB222091C6223091C72231
S1131B3080913F22909140228217930708F4B1C20A
S1131B401092C6221092C7222091DC223091DD220D
S1131B5080912D2290912E228217930708F09CC227
S1131B60281B390B2093DC223093DD222091C822DC
S1131B703091C92280914122909142228217930789
S1131B8008F085C2281B390B2093C8223093C92240
S1131B9080914322909144228E159F0508F072C2D1
S1131BA0E81AF90AE092B422F092B5228091452213
S1131BB0909146228C159D0508F05FC2C81AD90A77
S1131BC0C092B222D092B32220914B2230914C2267
S1131BD06091492270914A2280E090E0620F731F65
S1131BE0811D911D20916B2230916C22809069227D
S1131BF090906A22A12CB12C820E931EA11CB11CC0
S1131C0020918B2230918C22C0908922D0908A22FC
S1131C10E12CF12CC20ED31EE11CF11C20914D22AB
S1131C2030914E22620F731F811D911D20916D22F0
S1131C3030916E22820E931EA11CB11C20918D2224
S1131C4030918E22C20ED31EE11CF11C20914F2232
S1131C5030915022620F731F811D911D20916F22BC
S1131C6030917022820E931EA11CB11C20918F22F0
S1131C7030919022C20ED31EE11CF11C20915122FE
S1131C8030915222620F731F811D911D2091712288
S1131C9030917222820E931EA11CB11C20919122BC
S1131CA030919222C20ED31EE11CF11C20915322CA
S1131CB030915422620F731F811D911D2091732254
S1131CC030917422820E931EA11CB11C2091932288
S1131CD030919422C20ED31EE11CF11C2091552296
S1131CE030915622620F731F811D911D2091752220
S1131CF030917622820E931EA11CB11C2091952254
S1131D0030919622C20ED31EE11CF11C2091572261
S1131D1030915822620F731F811D911D20917722EB
S1131D2030917822820E931EA11CB11C209197221F
S1131D3030919822C20ED31EE11CF11C209159222D
S1131D4030915A22620F731F811D911D20917922B7
S1131D5030917A22820E931EA11CB11C20919922EB
S1131D6030919A22C20ED31EE11CF11C20915B22F9
S1131D7030915C22620F731F811D911D20917B2283
S1131D8030917C22820E931EA11CB11C20919B22B7
S1131D9030919C22C20ED31EE11CF11C20915D22C5
S1131DA030915E22620F731F811D911D20917D224F
S1131DB030917E22820E931EA11CB11C20919D2283
S1131DC030919E22C20ED31EE11CF11C20915F2291
S1131DD030916022620F731F811D911D20917F221B
S1131DE030918022820E931EA11CB11C20919F224F
S1131DF03091A022C20ED31EE11CF11C209161225D
S1131E0030916222620F731F811D911D20918122E6
S1131E1030918222820E931EA11CB11C2091A1221A
S1131E203091A222C20ED31EE11CF11C2091632228
S1131E3030916422620F731F811D911D20918322B2
S1131E4030918422820E931EA11CB11C2091A322E6
S1131E503091A422C20ED31EE11CF11C20916522F4
S1131E6030916622620F731F811D911D209185227E
S1131E7030918622820E931EA11CB11C2091A522B2
S1131E803091A622C20ED31EE11CF11C20916722C0
S1131E9030916822620F731F811D911D209187224A
S1131EA030918822820E931EA11CB11C2091A7227E
S1131EB03091A822C20ED31EE11CF11C24E0B6947A
S1131EC0A794979487942A95D1F734E0F694E794ED
S1131ED0D794C7943A95D1F744E09695879577952A
S1131EE067954A95D1F7EED59B01AC015BD5BED57C
S1131EF06215730508F4B4C01092B12292E0592E11
S1131F00C501B401DFD526E636E646EE5FE368D6C2
S1131F10ADD56017710740F45092B12280910F2221
S1131F208F5F80930F225886C701B601CBD520E07E
S1131F3030E040EC5FE354D699D588856615770583
S1131F4008F08AC084608093B12280910E228F5F52
S1131F5080930E2280910D228F5F80930D228091B9
S1131F600C228F5F80930C22883208F45EC020918B
S1131F70AE2240910E2230E0C901880F991F820FD2
S1131F80931FAEE14A9F800D911D1124959587956D
S1131F90959587958093AE2210920E222091AF22C0
S1131FA040910F2230E0C901880F991F820F931FBF
S1131FB0BEE14B9F800D911D1124959587959595B4
S1131FC087958093AF2210920F222091B0224091E6
S1131FD0102230E0C901880F991F820F931FEEE190
S1131FE04E9F800D911D1124959587959595879504
S1131FF08093B022109210222091AD2240910D22A4
S113200030E0C901880F991F820F931FFEE14F9F93
S1132010800D911D112495958795959587958093AD
S1132020AD2210920D2210920C22C85ADF4FCDBF60
S1132030DEBFDF91CF911F910F91FF90EF90DF9062
S1132040CF90BF90AF909F908F907F906F905F9054
S11320504F903F902F900895882309F480CF7ACF32
S113206081E08093B122809110228F5F80931022AF
S113207083E0582E51E0588743CF1092B222109239
S1132080B322A2CD1092B4221092B5228FCD109219
S1132090C8221092C9227CCD1092DC221092DD223B
S11320A065CD281B390B2093C6223093C7224CCD13
S11320B0281B390B2093DA223093DB2235CD281BE1
S11320C0390B2093C4223093C5221ECD281B390B13
S11320D02093D8223093D92207CD281B390B209383
S11320E0C2223093C322F0CC281B390B2093D62272
S11320F03093D722D9CC281B390B2093C02230939C
S1132100C122C2CC281B390B2093D4223093D52270
S1132110ABCC281B390B2093BE223093BF2294CC26
S1132120281B390B2093D2223093D3227DCC281B39
S1132130390B2093BC223093BD2266CC281B390B6B
S11321402093D0223093D1224FCC281B390B2093DB
S1132150BA223093BB2238CC281B390B2093CE22D1
S11321603093CF2221CC281B390B2093B8223093F3
S1132170B9220ACC281B390B2093CC223093CD22D0
S1132180F3CB281B390B2093B6223093B722DCCB38
S1132190281B390B2093CA223093CB22C5CB885FEE
S11321A09B4FFC01108208950895885F9B4F21E0A6
S11321B0FC01208308958F929F92AF92BF92CF9299
S11321C0DF92EF92FF920F931F93CF93DF9300D090
S11321D01F92CDB7DEB76C0128EFC21A2BEFD20ADB
S11321E0D6012C91233009F4E4C0A8F1253009F478
S11321F04BC008F499C0263009F04CC07C01BCE700
S1132200EB1ABCEFFB0AB7010E94F50300E112E0F0
S1132210F8012591359145915491F70160817181BF
S113222080E090E029833A834B835C834BD42981FB
S11322303A814B815C81D4D419D4D7016D937D93B9
S11322407D010C5F1F4FB3E000311B0709F7F60156
S1132250108280E009C0213009F12230D9F40E94B3
S11322602B0383E0D6018C932496CDBFDEBFDF9190
S1132270CF911F910F91FF90EF90DF90CF90BF907F
S1132280AF909F908F9008950E942B0386E0D60113
S11322908C93EACFD6011C9280E0E6CF4C01BEE7D6
S11322A08B1ABCEF9B0AF401108211827C01F0E8C6
S11322B0EF1AFCEFFF0A2FEF3FEFD7012D933C936A
S11322C0ECE0F1E2AC015E5F5A010FEF1FEF60E05A
S11322D070E003C0D4016D917C912191319162171A
S11322E0730718F4D4012D933C932017310720F47D
S11322F0D7012D933C93890122953295307F322763
S1132300207F32272F5F3F47D5012D933D935D01F9
S1132310B2E2EC30FB07F1F6BC01CA010E94FC02F8
S113232082E0F6018083A0CF4C01FAEF8F1AFBEF15
S11323309F0AD4011D921C927C01B4E0EB0EFB1E9B
S11323402FEF3FEFF70120833183ECE0F0E2AC01A3
S11323505E5F5A010FEF1FEF60E070E003C0D4012D
S11323606D917C91219131916217730718F4D40116
S11323702D933C932017310720F4D7012D933C93E0
S1132380890122953295307F3227207F32272F5FB3
S11323903F47D5012D933D935D01B1E2EC30FB073E
S11323A0F1F6BC01CA010E94FC0285E0F6018083BB
S11323B05BCF7C01BDEFFB1AB7010E94F50300E17E
S11323C012E0F8012591359145915491F70160810E
S11323D0718180E090E029833A834B835C8372D3DC
S11323E029813A814B815C81FBD340D3D7016D9322
S11323F07D937D010C5F1F4FB3E000311B0709F78C
S113240084E0F601808330CF8C579C4F08959D5F04
S11324100895E0E4F6E081818F7181838181806A8F
S11324208183E0ECF8E080ED8083118208956623D7
S113243069F0282FFC0181918093C3088091C20820
S113244087FFFCCF8E2F821B8617A8F308958093F5
S1132450C3088091C20887FFFCCF8091C308089508
S11324608BEC8093520080915000886080935000E0
S11324708091510083FFFCCF82EC809355008091C2
S113248050008061809350008091510084FFFCCF04
S113249088ED84BF84E080934000809150008E7F5B
S11324A0809350001092E0221092E1221092E222D6
S11324B01092E32281E08093400882E080934608F2
S11324C08FEF9CE7809366089093670880E8809379
S11324D000012FEF83EC99E0215080409040E1F718
S11324E000C00000809101068460809301064DD1F4
S11324F00E9471050E94900480EF96E2813090441E
S113250008F08BC0E0E0F0E480E090E032912291AA
S11325108227932726E2E03FF207C0F772D484E0D3
S1132520809304068FEF93EC29E081509040204083
S1132530E1F700C000008BEF8093040680E03AD1FD
S11325401092DF221092DE228091A2008760809395
S1132550A200789413E08091DE22813069F08091AA
S1132560DF2281FF0FC08091DF228D7F8093DF22E5
S11325708091DE22813099F70E943E058091DF220E
S113258081FDF1CF8091DF2280FD2CC08091DE227D
S113259081110CC08091DF2282FF08C00E94CB040D
S11325A08091DF228B7F8093DF22D5CF8091DE2242
S11325B0823001F18091DE22833011F18091DF229B
S11325C083FFC9CF84EE92E222DFEC0184EE92E233
S11325D01BDFBE010E9442078091DF22877F809328
S11325E0DF22B9CF0E9415068091DF228E7F80936F
S11325F0DF22B1CF84EE92E2D8DD1093DE22ABCF9E
S113260084EE92E2D8DD8111A6CF8091DF2288602A
S11326108093DF221092DE229ECF80E090E07ECF76
S11326201F920F920FB60F9211248F939F93AF9323
S1132630BF938091092081508093092081110BC0A0
S113264081E08093A7068091DF2281608093DF225E
S113265080E1809309208091082081508093082094
S1132660811108C08091DF2282608093DF228AE09A
S113267080930820809106209091072001978093F1
S1132680062090930720892B59F48091DF228460DF
S11326908093DF2282E390E08093062090930720CA
S11326A08091E0229091E122A091E222B091E32274
S11326B00196A11DB11D8093E0229093E122A09385
S11326C0E222B093E322BF91AF919F918F910F903B
S11326D00FBE0F901F9018951F920F920FB60F9276
S11326E011240BB60F922F933F934F935F936F93E5
S11326F07F938F939F93AF93BF93CF93EF93FF9366
S11327008FEE809344068FEFA2DEC82F80E1809382
S11327104406C5FD2EC0C4FD1EC0C0FF08C08FEE18
S11327208093440681EE93DE80E180934406FF911A
S1132730EF91CF91BF91AF919F918F917F916F91C5
S11327405F914F913F912F910F900BBE0F900FBE51
S11327500F901F90189560E187E0C7D088E08093C0
S113276044068AE68A95F1F700C087EF8093440611
S1132770D4CF60E287E0B9D01092ED26CCCF84EEBE
S113278092E20DCD84EE92E20FCDE0E4F6E0818199
S11327908861818387EF848380E18483E0E0F6E0CD
S11327A081818D6F818382E0828782E3818B81E0E6
S11327B081872FCE0F931F93CF93DF9300D000D048
S11327C0CDB7DEB7982F0FEE0093440685E29E83C3
S11327D03EDE82E03CDE10E11093440600934406A2
S11327E086E235DE8EE033DE109344060093440621
S11327F080E22DDE8CE42BDE109344060093440625
S113280084E225DE8FE223DE109344069E8192301B
S113281009F464C070F0943009F44CC008F457C053
S1132820953061F582EC8D838C838B838A8386EC6F
S11328300AC0992309F445C0913001F582EC8D83D7
S11328408C838B838A8389830093440680E3FFDD32
S113285065E0CE010196EBDD1093440687EF80938B
S11328604406009344068AE2F2DD65E0CE01019657
S1132870DEDD1093440688E0809344060FEE009357
S1132880440681E2E4DD80E0E2DD10E110934406D9
S11328901092ED260093440680E2D9DD8EE4D7DD64
S11328A0109344062696CDBFDEBFDF91CF911F91D2
S11328B00F91089582EC8D838C838B838A8385ECBE
S11328C0C2CF87EE8D838C838B838A83BCCF82ECCB
S11328D08D838C838B838A8384ECB5CF82EC8D8348
S11328E08C838B838A8383ECAECF0F931F93CF9318
S11328F0DF931F92CDB7DEB700E416E09FEEF80138
S113290094838F7180626983A2DD6981862F9FDD44
S113291080E1F80184830F90DF91CF911F910F9193
S11329200895EF92FF920F931F93CF93DF931F921B
S1132930CDB7DEB77C018091ED268111FCCF87EF06
S11329408093440681E08093ED260FEE00934406C5
S113295080E269837CDD8EE47ADD10E11093440625
S11329600093440681EE73DD1093440600934406FD
S113297080EA6DDD6981C7015ADD1093440688E061
S1132980809344068AE68A95F1F700C087EF809326
S113299044060F90DF91CF911F910F91FF90EF901C
S11329A008955058BB27AA270ED0E0C0D1D030F0EC
S11329B0D6D020F031F49F3F11F41EF4C6C00EF4BB
S11329C0E095E7FBBCC0E92FE2D080F3BA176207B9
S11329D073078407950718F071F49EF5FAC00EF496
S11329E0E0950B2EBA2FA02D0B01B90190010C011B
S11329F0CA01A0011124FF27591B99F0593F50F433
S1132A00503E68F11A16F040A22F232F342F44278A
S1132A10585FF3CF469537952795A795F040539582
S1132A20C9F77EF41F16BA0B620B730B840BBAF052
S1132A309150A1F0FF0FBB1F661F771F881FC2F7BD
S1132A400EC0BA0F621F731F841F48F487957795D1
S1132A506795B795F7959E3F08F0B3CF9395880F88
S1132A6008F09927EE0F97958795089598D088F0E8
S1132A709F5790F0B92F9927B751A0F0D1F0660F66
S1132A80771F881F991F1AF0BA95C9F712C0B13081
S1132A9081F09FD0B1E008959CC0672F782F8827DC
S1132AA0B85F39F0B93FCCF3869577956795B395C0
S1132AB0D9F73EF490958095709561957F4F8F4F2F
S1132AC09F4F0895E89409C097FB3EF49095809534
S1132AD0709561957F4F8F4F9F4F9923A9F0F92FE0
S1132AE096E9BB279395F695879577956795B7955E
S1132AF0F111F8CFFAF4BB0F11F460FF1BC06F5F44
S1132B007F4F8F4F9F4F16C0882311F096E911C055
S1132B10772321F09EE8872F762F05C0662371F076
S1132B2096E8862F70E060E02AF09A95660F771F8A
S1132B30881FDAF7880F9695879597F9089597F97E
S1132B409F6780E870E060E008959FEF80EC08954F
S1132B5000240A9416161706180609060895002478
S1132B600A9412161306140605060895092E0394F2
S1132B70000C11F4882352F0BB0F40F4BF2B11F466
S1132B8060FF04C06F5F7F4F8F4F9F4F089557FDC5
S1132B909058440F551F59F05F3F71F04795880FC7
S1132BA097FB991F61F09F3F79F08795089512165E
S1132BB013061406551FF2CF4695F1DF08C016160A
S1132BC017061806991FF1CF8695710561050894BB
S1132BD00895E894BB2766277727CB0197F90895D2
S1132BE00BD0C4CFB5DF28F0BADF18F0952309F075
S1132BF0A6CFABCF1124EECFCADFA0F3959FD1F3BC
S1132C00950F50E0551F629FF001729FBB27F00D96
S1132C10B11D639FAA27F00DB11DAA1F649F6627EB
S1132C20B00DA11D661F829F2227B00DA11D621F3A
S1132C30739FB00DA11D621F839FA00D611D221FF4
S1132C40749F3327A00D611D231F849F600D211DD8
S1132C50822F762F6A2F11249F5750408AF0E1F07B
S1132C6088234AF0EE0FFF1FBB1F661F771F881FC4
S1132C7091505040A9F79E3F510570F060CFAACF04
S1132C805F3FECF3983EDCF3869577956795B795AF
S1132C90F795E7959F5FC1F7FE2B880F911D9695D9
S1132CA0879597F9089597FB072E16F4009406D09C
S1132CB077FD08D046D007FC05D03EF49095819569
S1132CC09F4F0895709561957F4F0895A1E21A2E44
S1132CD0AA1BBB1BFD010DC0AA1FBB1FEE1FFF1FBC
S1132CE0A217B307E407F50720F0A21BB30BE40B0C
S1132CF0F50B661F771F881F991F1A9469F7609553
S1132D007095809590959B01AC01BD01CF0108950C
S1132D10EE0FFF1F0590F491E02D1994A29FB001CE
S1132D20B39FC001A39F700D811D1124911DB29FFB
S1132D30700D811D1124911D08950790F691E02DC9
S1132D401994AA1BBB1B51E107C0AA1FBB1FA617DE
S1132D50B70710F0A61BB70B881F991F5A95A9F740
S1132D6080959095BC01CD0108958F929F92AF926A
S1132D70BF92CF92DF92EF92FF92CF93DF93EC0159
S1132D80688179818A819B8161157105810591052D
S1132D9021F464E279ED8BE597E02DE133EF41E036
S1132DA050E04ED049015A019B01AC01A7EAB1E4BD
S1132DB063D06B017C01ACEEB4EFA501940168D043
S1132DC0C60ED71EE81EF91EF7FE06C081E0C81A1B
S1132DD0D108E10880E8F80AC882D982EA82FB8235
S1132DE0C6019F77DF91CF91FF90EF90DF90CF9056
S1132DF0BF90AF909F908F900895B7CF80E090E2FE
S1132E00B4CFA0E0B0E08093002090930120A09381
S1132E100220B09303200895E0ECF1E0A785A7FD1C
S1132E20FDCFA485A860A4876050704F00C0FB014B
S1132E30DC0102C001900D9241505040D8F7089532
S1132E40052E97FB16F400940FD057FD05D03EDFF6
S1132E5007FC02D046F408C0509540953095219562
S1132E603F4F4F4F5F4F08959095809570956195B2
S1132E707F4F8F4F9F4F089551DFA59F900DB49FB3
S1132E80900DA49F800D911D11240895B7FFF4CFD8
S1132E90F3DF821B930B089513E0C2E1D3E000E05B
S1132EA005C022970109FE010BBF47DFC431D107DA
S10D2EB080E00807B1F7F894FFCFA3
S10D2EBA0100000001FE32000A10BE
S9030000FC
